{
  "_format": "hh-sol-artifact-1",
  "contractName": "BuyMyRoom",
  "sourceName": "contracts/BuyMyRoom.sol",
  "abi": [
    {
      "inputs": [],
      "stateMutability": "nonpayable",
      "type": "constructor"
    },
    {
      "inputs": [
        {
          "internalType": "address",
          "name": "sender",
          "type": "address"
        },
        {
          "internalType": "uint256",
          "name": "tokenId",
          "type": "uint256"
        },
        {
          "internalType": "address",
          "name": "owner",
          "type": "address"
        }
      ],
      "name": "ERC721IncorrectOwner",
      "type": "error"
    },
    {
      "inputs": [
        {
          "internalType": "address",
          "name": "operator",
          "type": "address"
        },
        {
          "internalType": "uint256",
          "name": "tokenId",
          "type": "uint256"
        }
      ],
      "name": "ERC721InsufficientApproval",
      "type": "error"
    },
    {
      "inputs": [
        {
          "internalType": "address",
          "name": "approver",
          "type": "address"
        }
      ],
      "name": "ERC721InvalidApprover",
      "type": "error"
    },
    {
      "inputs": [
        {
          "internalType": "address",
          "name": "operator",
          "type": "address"
        }
      ],
      "name": "ERC721InvalidOperator",
      "type": "error"
    },
    {
      "inputs": [
        {
          "internalType": "address",
          "name": "owner",
          "type": "address"
        }
      ],
      "name": "ERC721InvalidOwner",
      "type": "error"
    },
    {
      "inputs": [
        {
          "internalType": "address",
          "name": "receiver",
          "type": "address"
        }
      ],
      "name": "ERC721InvalidReceiver",
      "type": "error"
    },
    {
      "inputs": [
        {
          "internalType": "address",
          "name": "sender",
          "type": "address"
        }
      ],
      "name": "ERC721InvalidSender",
      "type": "error"
    },
    {
      "inputs": [
        {
          "internalType": "uint256",
          "name": "tokenId",
          "type": "uint256"
        }
      ],
      "name": "ERC721NonexistentToken",
      "type": "error"
    },
    {
      "anonymous": false,
      "inputs": [
        {
          "indexed": true,
          "internalType": "address",
          "name": "owner",
          "type": "address"
        },
        {
          "indexed": true,
          "internalType": "address",
          "name": "approved",
          "type": "address"
        },
        {
          "indexed": true,
          "internalType": "uint256",
          "name": "tokenId",
          "type": "uint256"
        }
      ],
      "name": "Approval",
      "type": "event"
    },
    {
      "anonymous": false,
      "inputs": [
        {
          "indexed": true,
          "internalType": "address",
          "name": "owner",
          "type": "address"
        },
        {
          "indexed": true,
          "internalType": "address",
          "name": "operator",
          "type": "address"
        },
        {
          "indexed": false,
          "internalType": "bool",
          "name": "approved",
          "type": "bool"
        }
      ],
      "name": "ApprovalForAll",
      "type": "event"
    },
    {
      "anonymous": false,
      "inputs": [
        {
          "indexed": false,
          "internalType": "uint256",
          "name": "houseId",
          "type": "uint256"
        },
        {
          "indexed": false,
          "internalType": "uint256",
          "name": "price",
          "type": "uint256"
        },
        {
          "indexed": false,
          "internalType": "address",
          "name": "owner",
          "type": "address"
        }
      ],
      "name": "HouseListed",
      "type": "event"
    },
    {
      "anonymous": false,
      "inputs": [
        {
          "indexed": false,
          "internalType": "uint256",
          "name": "houseId",
          "type": "uint256"
        },
        {
          "indexed": false,
          "internalType": "uint256",
          "name": "price",
          "type": "uint256"
        },
        {
          "indexed": false,
          "internalType": "address",
          "name": "oldOwner",
          "type": "address"
        }
      ],
      "name": "HouseOnSale",
      "type": "event"
    },
    {
      "anonymous": false,
      "inputs": [
        {
          "indexed": false,
          "internalType": "uint256",
          "name": "houseId",
          "type": "uint256"
        },
        {
          "indexed": false,
          "internalType": "uint256",
          "name": "price",
          "type": "uint256"
        },
        {
          "indexed": false,
          "internalType": "address",
          "name": "newOwner",
          "type": "address"
        }
      ],
      "name": "HouseSold",
      "type": "event"
    },
    {
      "anonymous": false,
      "inputs": [
        {
          "indexed": true,
          "internalType": "address",
          "name": "from",
          "type": "address"
        },
        {
          "indexed": true,
          "internalType": "address",
          "name": "to",
          "type": "address"
        },
        {
          "indexed": true,
          "internalType": "uint256",
          "name": "tokenId",
          "type": "uint256"
        }
      ],
      "name": "Transfer",
      "type": "event"
    },
    {
      "inputs": [
        {
          "internalType": "address",
          "name": "to",
          "type": "address"
        },
        {
          "internalType": "uint256",
          "name": "tokenId",
          "type": "uint256"
        }
      ],
      "name": "approve",
      "outputs": [],
      "stateMutability": "nonpayable",
      "type": "function"
    },
    {
      "inputs": [
        {
          "internalType": "address",
          "name": "owner",
          "type": "address"
        }
      ],
      "name": "balanceOf",
      "outputs": [
        {
          "internalType": "uint256",
          "name": "",
          "type": "uint256"
        }
      ],
      "stateMutability": "view",
      "type": "function"
    },
    {
      "inputs": [
        {
          "internalType": "uint256",
          "name": "houseId",
          "type": "uint256"
        }
      ],
      "name": "buyHouseWithTokens",
      "outputs": [],
      "stateMutability": "nonpayable",
      "type": "function"
    },
    {
      "inputs": [],
      "name": "buyTokens",
      "outputs": [],
      "stateMutability": "payable",
      "type": "function"
    },
    {
      "inputs": [],
      "name": "contractOwner",
      "outputs": [
        {
          "internalType": "address",
          "name": "",
          "type": "address"
        }
      ],
      "stateMutability": "view",
      "type": "function"
    },
    {
      "inputs": [
        {
          "internalType": "uint256",
          "name": "tokenId",
          "type": "uint256"
        }
      ],
      "name": "getApproved",
      "outputs": [
        {
          "internalType": "address",
          "name": "",
          "type": "address"
        }
      ],
      "stateMutability": "view",
      "type": "function"
    },
    {
      "inputs": [
        {
          "internalType": "address",
          "name": "owner",
          "type": "address"
        }
      ],
      "name": "getHouseByOwner",
      "outputs": [
        {
          "internalType": "uint256[]",
          "name": "",
          "type": "uint256[]"
        }
      ],
      "stateMutability": "view",
      "type": "function"
    },
    {
      "inputs": [
        {
          "internalType": "uint256",
          "name": "houseId",
          "type": "uint256"
        }
      ],
      "name": "getHouseInfo",
      "outputs": [
        {
          "internalType": "address",
          "name": "",
          "type": "address"
        },
        {
          "internalType": "uint256",
          "name": "",
          "type": "uint256"
        },
        {
          "internalType": "uint256",
          "name": "",
          "type": "uint256"
        }
      ],
      "stateMutability": "view",
      "type": "function"
    },
    {
      "inputs": [],
      "name": "getHousesForSale",
      "outputs": [
        {
          "internalType": "uint256[]",
          "name": "",
          "type": "uint256[]"
        }
      ],
      "stateMutability": "view",
      "type": "function"
    },
    {
      "inputs": [],
      "name": "getMyERC20",
      "outputs": [
        {
          "internalType": "uint256",
          "name": "",
          "type": "uint256"
        }
      ],
      "stateMutability": "view",
      "type": "function"
    },
    {
      "inputs": [
        {
          "internalType": "uint256",
          "name": "",
          "type": "uint256"
        }
      ],
      "name": "houses",
      "outputs": [
        {
          "internalType": "address",
          "name": "owner",
          "type": "address"
        },
        {
          "internalType": "uint256",
          "name": "listedTimestamp",
          "type": "uint256"
        },
        {
          "internalType": "uint256",
          "name": "price",
          "type": "uint256"
        },
        {
          "internalType": "bool",
          "name": "isOnSale",
          "type": "bool"
        }
      ],
      "stateMutability": "view",
      "type": "function"
    },
    {
      "inputs": [
        {
          "internalType": "address",
          "name": "owner",
          "type": "address"
        },
        {
          "internalType": "address",
          "name": "operator",
          "type": "address"
        }
      ],
      "name": "isApprovedForAll",
      "outputs": [
        {
          "internalType": "bool",
          "name": "",
          "type": "bool"
        }
      ],
      "stateMutability": "view",
      "type": "function"
    },
    {
      "inputs": [
        {
          "internalType": "uint256",
          "name": "houseId",
          "type": "uint256"
        },
        {
          "internalType": "uint256",
          "name": "price",
          "type": "uint256"
        }
      ],
      "name": "listHouse",
      "outputs": [],
      "stateMutability": "nonpayable",
      "type": "function"
    },
    {
      "inputs": [],
      "name": "myERC20",
      "outputs": [
        {
          "internalType": "contract MyERC20",
          "name": "",
          "type": "address"
        }
      ],
      "stateMutability": "view",
      "type": "function"
    },
    {
      "inputs": [
        {
          "internalType": "address",
          "name": "",
          "type": "address"
        }
      ],
      "name": "myHouseCount",
      "outputs": [
        {
          "internalType": "uint256",
          "name": "",
          "type": "uint256"
        }
      ],
      "stateMutability": "view",
      "type": "function"
    },
    {
      "inputs": [],
      "name": "name",
      "outputs": [
        {
          "internalType": "string",
          "name": "",
          "type": "string"
        }
      ],
      "stateMutability": "view",
      "type": "function"
    },
    {
      "inputs": [],
      "name": "nextHouseId",
      "outputs": [
        {
          "internalType": "uint256",
          "name": "",
          "type": "uint256"
        }
      ],
      "stateMutability": "view",
      "type": "function"
    },
    {
      "inputs": [],
      "name": "onSaleHouseCount",
      "outputs": [
        {
          "internalType": "uint256",
          "name": "",
          "type": "uint256"
        }
      ],
      "stateMutability": "view",
      "type": "function"
    },
    {
      "inputs": [
        {
          "internalType": "uint256",
          "name": "tokenId",
          "type": "uint256"
        }
      ],
      "name": "ownerOf",
      "outputs": [
        {
          "internalType": "address",
          "name": "",
          "type": "address"
        }
      ],
      "stateMutability": "view",
      "type": "function"
    },
    {
      "inputs": [],
      "name": "recieveHouse",
      "outputs": [],
      "stateMutability": "nonpayable",
      "type": "function"
    },
    {
      "inputs": [
        {
          "internalType": "address",
          "name": "from",
          "type": "address"
        },
        {
          "internalType": "address",
          "name": "to",
          "type": "address"
        },
        {
          "internalType": "uint256",
          "name": "tokenId",
          "type": "uint256"
        }
      ],
      "name": "safeTransferFrom",
      "outputs": [],
      "stateMutability": "nonpayable",
      "type": "function"
    },
    {
      "inputs": [
        {
          "internalType": "address",
          "name": "from",
          "type": "address"
        },
        {
          "internalType": "address",
          "name": "to",
          "type": "address"
        },
        {
          "internalType": "uint256",
          "name": "tokenId",
          "type": "uint256"
        },
        {
          "internalType": "bytes",
          "name": "data",
          "type": "bytes"
        }
      ],
      "name": "safeTransferFrom",
      "outputs": [],
      "stateMutability": "nonpayable",
      "type": "function"
    },
    {
      "inputs": [
        {
          "internalType": "address",
          "name": "operator",
          "type": "address"
        },
        {
          "internalType": "bool",
          "name": "approved",
          "type": "bool"
        }
      ],
      "name": "setApprovalForAll",
      "outputs": [],
      "stateMutability": "nonpayable",
      "type": "function"
    },
    {
      "inputs": [
        {
          "internalType": "bytes4",
          "name": "interfaceId",
          "type": "bytes4"
        }
      ],
      "name": "supportsInterface",
      "outputs": [
        {
          "internalType": "bool",
          "name": "",
          "type": "bool"
        }
      ],
      "stateMutability": "view",
      "type": "function"
    },
    {
      "inputs": [],
      "name": "symbol",
      "outputs": [
        {
          "internalType": "string",
          "name": "",
          "type": "string"
        }
      ],
      "stateMutability": "view",
      "type": "function"
    },
    {
      "inputs": [
        {
          "internalType": "uint256",
          "name": "tokenId",
          "type": "uint256"
        }
      ],
      "name": "tokenURI",
      "outputs": [
        {
          "internalType": "string",
          "name": "",
          "type": "string"
        }
      ],
      "stateMutability": "view",
      "type": "function"
    },
    {
      "inputs": [
        {
          "internalType": "address",
          "name": "from",
          "type": "address"
        },
        {
          "internalType": "address",
          "name": "to",
          "type": "address"
        },
        {
          "internalType": "uint256",
          "name": "tokenId",
          "type": "uint256"
        }
      ],
      "name": "transferFrom",
      "outputs": [],
      "stateMutability": "nonpayable",
      "type": "function"
    },
    {
      "inputs": [
        {
          "internalType": "uint256",
          "name": "houseId",
          "type": "uint256"
        }
      ],
      "name": "unListHouse",
      "outputs": [],
      "stateMutability": "nonpayable",
      "type": "function"
    }
  ],
  "bytecode": "0x60806040523480156200001157600080fd5b506040518060400160405280600881526020017f486f7573654e46540000000000000000000000000000000000000000000000008152506040518060400160405280600481526020017f484e46540000000000000000000000000000000000000000000000000000000081525081600090816200008f9190620003fa565b508060019081620000a19190620003fa565b50505033600660006101000a81548173ffffffffffffffffffffffffffffffffffffffff021916908373ffffffffffffffffffffffffffffffffffffffff16021790555060016007819055506000600881905550604051620001039062000172565b6200010e9062000592565b604051809103906000f0801580156200012b573d6000803e3d6000fd5b50600960006101000a81548173ffffffffffffffffffffffffffffffffffffffff021916908373ffffffffffffffffffffffffffffffffffffffff160217905550620005c9565b611b068062003faf83390190565b600081519050919050565b7f4e487b7100000000000000000000000000000000000000000000000000000000600052604160045260246000fd5b7f4e487b7100000000000000000000000000000000000000000000000000000000600052602260045260246000fd5b600060028204905060018216806200020257607f821691505b602082108103620002185762000217620001ba565b5b50919050565b60008190508160005260206000209050919050565b60006020601f8301049050919050565b600082821b905092915050565b600060088302620002827fffffffffffffffffffffffffffffffffffffffffffffffffffffffffffffffff8262000243565b6200028e868362000243565b95508019841693508086168417925050509392505050565b6000819050919050565b6000819050919050565b6000620002db620002d5620002cf84620002a6565b620002b0565b620002a6565b9050919050565b6000819050919050565b620002f783620002ba565b6200030f6200030682620002e2565b84845462000250565b825550505050565b600090565b6200032662000317565b62000333818484620002ec565b505050565b5b818110156200035b576200034f6000826200031c565b60018101905062000339565b5050565b601f821115620003aa5762000374816200021e565b6200037f8462000233565b810160208510156200038f578190505b620003a76200039e8562000233565b83018262000338565b50505b505050565b600082821c905092915050565b6000620003cf60001984600802620003af565b1980831691505092915050565b6000620003ea8383620003bc565b9150826002028217905092915050565b620004058262000180565b67ffffffffffffffff8111156200042157620004206200018b565b5b6200042d8254620001e9565b6200043a8282856200035f565b600060209050601f8311600181146200047257600084156200045d578287015190505b620004698582620003dc565b865550620004d9565b601f19841662000482866200021e565b60005b82811015620004ac5784890151825560018201915060208501945060208101905062000485565b86831015620004cc5784890151620004c8601f891682620003bc565b8355505b6001600288020188555050505b505050505050565b600082825260208201905092915050565b7f4d79455243323000000000000000000000000000000000000000000000000000600082015250565b60006200052a600783620004e1565b91506200053782620004f2565b602082019050919050565b7f4d79455243323053796d626f6c00000000000000000000000000000000000000600082015250565b60006200057a600d83620004e1565b9150620005878262000542565b602082019050919050565b60006040820190508181036000830152620005ad816200051b565b90508181036020830152620005c2816200056b565b9050919050565b6139d680620005d96000396000f3fe6080604052600436106101b75760003560e01c80639e4ffa7f116100ec578063c87b56dd1161008a578063e57c153d11610064578063e57c153d1461062a578063e985e9c514610667578063f88e796a146106a4578063fa49b6fd146106cd576101b7565b8063c87b56dd146105b8578063ce606ee0146105f5578063d0febe4c14610620576101b7565b8063aeda852f116100c6578063aeda852f146104fb578063b24b45861461053b578063b54230c914610564578063b88d4fde1461058f576101b7565b80639e4ffa7f14610468578063a22cb46514610493578063ad50f56d146104bc576101b7565b80636352211e1161015957806370a082311161013357806370a08231146103ac57806371de15d8146103e957806395d89b411461041457806399b231781461043f576101b7565b80636352211e1461030757806368fb2bc5146103445780636d3739c414610381576101b7565b8063095ea7b311610195578063095ea7b3146102615780631f7336501461028a57806323b872dd146102b557806342842e0e146102de576101b7565b806301ffc9a7146101bc57806306fdde03146101f9578063081812fc14610224575b600080fd5b3480156101c857600080fd5b506101e360048036038101906101de9190612a1c565b6106e4565b6040516101f09190612a64565b60405180910390f35b34801561020557600080fd5b5061020e6107c6565b60405161021b9190612b0f565b60405180910390f35b34801561023057600080fd5b5061024b60048036038101906102469190612b67565b610858565b6040516102589190612bd5565b60405180910390f35b34801561026d57600080fd5b5061028860048036038101906102839190612c1c565b610874565b005b34801561029657600080fd5b5061029f61088a565b6040516102ac9190612c6b565b60405180910390f35b3480156102c157600080fd5b506102dc60048036038101906102d79190612c86565b610890565b005b3480156102ea57600080fd5b5061030560048036038101906103009190612c86565b610992565b005b34801561031357600080fd5b5061032e60048036038101906103299190612b67565b6109b2565b60405161033b9190612bd5565b60405180910390f35b34801561035057600080fd5b5061036b60048036038101906103669190612cd9565b6109c4565b6040516103789190612dc4565b60405180910390f35b34801561038d57600080fd5b50610396610ab3565b6040516103a39190612e45565b60405180910390f35b3480156103b857600080fd5b506103d360048036038101906103ce9190612cd9565b610ad9565b6040516103e09190612c6b565b60405180910390f35b3480156103f557600080fd5b506103fe610b93565b60405161040b9190612c6b565b60405180910390f35b34801561042057600080fd5b50610429610c36565b6040516104369190612b0f565b60405180910390f35b34801561044b57600080fd5b5061046660048036038101906104619190612e60565b610cc8565b005b34801561047457600080fd5b5061047d610e92565b60405161048a9190612dc4565b60405180910390f35b34801561049f57600080fd5b506104ba60048036038101906104b59190612ecc565b610f6f565b005b3480156104c857600080fd5b506104e360048036038101906104de9190612b67565b610f85565b6040516104f293929190612f0c565b60405180910390f35b34801561050757600080fd5b50610522600480360381019061051d9190612b67565b610ffc565b6040516105329493929190612f43565b60405180910390f35b34801561054757600080fd5b50610562600480360381019061055d9190612b67565b611059565b005b34801561057057600080fd5b5061057961153e565b6040516105869190612c6b565b60405180910390f35b34801561059b57600080fd5b506105b660048036038101906105b191906130bd565b611544565b005b3480156105c457600080fd5b506105df60048036038101906105da9190612b67565b611561565b6040516105ec9190612b0f565b60405180910390f35b34801561060157600080fd5b5061060a6115ca565b6040516106179190612bd5565b60405180910390f35b6106286115f0565b005b34801561063657600080fd5b50610651600480360381019061064c9190612cd9565b611733565b60405161065e9190612c6b565b60405180910390f35b34801561067357600080fd5b5061068e60048036038101906106899190613140565b61174b565b60405161069b9190612a64565b60405180910390f35b3480156106b057600080fd5b506106cb60048036038101906106c69190612b67565b6117df565b005b3480156106d957600080fd5b506106e2611937565b005b60007f80ac58cd000000000000000000000000000000000000000000000000000000007bffffffffffffffffffffffffffffffffffffffffffffffffffffffff1916827bffffffffffffffffffffffffffffffffffffffffffffffffffffffff191614806107af57507f5b5e139f000000000000000000000000000000000000000000000000000000007bffffffffffffffffffffffffffffffffffffffffffffffffffffffff1916827bffffffffffffffffffffffffffffffffffffffffffffffffffffffff1916145b806107bf57506107be82611b02565b5b9050919050565b6060600080546107d5906131af565b80601f0160208091040260200160405190810160405280929190818152602001828054610801906131af565b801561084e5780601f106108235761010080835404028352916020019161084e565b820191906000526020600020905b81548152906001019060200180831161083157829003601f168201915b5050505050905090565b600061086382611b6c565b5061086d82611bf4565b9050919050565b6108868282610881611c31565b611c39565b5050565b60085481565b600073ffffffffffffffffffffffffffffffffffffffff168273ffffffffffffffffffffffffffffffffffffffff16036109025760006040517f64a0ae920000000000000000000000000000000000000000000000000000000081526004016108f99190612bd5565b60405180910390fd5b60006109168383610911611c31565b611c4b565b90508373ffffffffffffffffffffffffffffffffffffffff168173ffffffffffffffffffffffffffffffffffffffff161461098c578382826040517f64283d7b000000000000000000000000000000000000000000000000000000008152600401610983939291906131e0565b60405180910390fd5b50505050565b6109ad83838360405180602001604052806000815250611544565b505050565b60006109bd82611b6c565b9050919050565b606060006109d183610ad9565b67ffffffffffffffff8111156109ea576109e9612f92565b5b604051908082528060200260200182016040528015610a185781602001602082028036833780820191505090505b509050600080600190505b600754811015610aa8578473ffffffffffffffffffffffffffffffffffffffff16610a4d826109b2565b73ffffffffffffffffffffffffffffffffffffffff1603610a955780838380610a7590613246565b945081518110610a8857610a8761328e565b5b6020026020010181815250505b8080610aa090613246565b915050610a23565b508192505050919050565b600960009054906101000a900473ffffffffffffffffffffffffffffffffffffffff1681565b60008073ffffffffffffffffffffffffffffffffffffffff168273ffffffffffffffffffffffffffffffffffffffff1603610b4c5760006040517f89c62b64000000000000000000000000000000000000000000000000000000008152600401610b439190612bd5565b60405180910390fd5b600360008373ffffffffffffffffffffffffffffffffffffffff1673ffffffffffffffffffffffffffffffffffffffff168152602001908152602001600020549050919050565b6000600960009054906101000a900473ffffffffffffffffffffffffffffffffffffffff1673ffffffffffffffffffffffffffffffffffffffff166370a08231336040518263ffffffff1660e01b8152600401610bf09190612bd5565b602060405180830381865afa158015610c0d573d6000803e3d6000fd5b505050506040513d601f19601f82011682018060405250810190610c3191906132d2565b905090565b606060018054610c45906131af565b80601f0160208091040260200160405190810160405280929190818152602001828054610c71906131af565b8015610cbe5780601f10610c9357610100808354040283529160200191610cbe565b820191906000526020600020905b815481529060010190602001808311610ca157829003601f168201915b5050505050905090565b3373ffffffffffffffffffffffffffffffffffffffff16600b600084815260200190815260200160002060000160009054906101000a900473ffffffffffffffffffffffffffffffffffffffff1673ffffffffffffffffffffffffffffffffffffffff1614610d6c576040517f08c379a0000000000000000000000000000000000000000000000000000000008152600401610d6390613371565b60405180910390fd5b60001515600b600084815260200190815260200160002060030160009054906101000a900460ff16151514610dd6576040517f08c379a0000000000000000000000000000000000000000000000000000000008152600401610dcd906133dd565b60405180910390fd5b80600b6000848152602001908152602001600020600201819055506001600b600084815260200190815260200160002060030160006101000a81548160ff02191690831515021790555042600b60008481526020019081526020016000206001018190555060086000815480929190610e4e90613246565b91905055507f60b3e540896cf4a419e7b7274a1f1282223f5d92ca6f0152cf820fe457fb4843828233604051610e86939291906133fd565b60405180910390a15050565b6060600060085467ffffffffffffffff811115610eb257610eb1612f92565b5b604051908082528060200260200182016040528015610ee05781602001602082028036833780820191505090505b509050600080600190505b600754811015610f665760011515600b600083815260200190815260200160002060030160009054906101000a900460ff16151503610f535780838381518110610f3857610f3761328e565b5b6020026020010181815250508180610f4f90613246565b9250505b8080610f5e90613246565b915050610eeb565b50819250505090565b610f81610f7a611c31565b8383611e65565b5050565b6000806000600b600085815260200190815260200160002060000160009054906101000a900473ffffffffffffffffffffffffffffffffffffffff16600b600086815260200190815260200160002060020154600b6000878152602001908152602001600020600101549250925092509193909250565b600b6020528060005260406000206000915090508060000160009054906101000a900473ffffffffffffffffffffffffffffffffffffffff16908060010154908060020154908060030160009054906101000a900460ff16905084565b600b600082815260200190815260200160002060030160009054906101000a900460ff166110bc576040517f08c379a00000000000000000000000000000000000000000000000000000000081526004016110b390613480565b60405180910390fd5b3373ffffffffffffffffffffffffffffffffffffffff16600b600083815260200190815260200160002060000160009054906101000a900473ffffffffffffffffffffffffffffffffffffffff1673ffffffffffffffffffffffffffffffffffffffff1603611160576040517f08c379a0000000000000000000000000000000000000000000000000000000008152600401611157906134ec565b60405180910390fd5b600b600082815260200190815260200160002060020154600960009054906101000a900473ffffffffffffffffffffffffffffffffffffffff1673ffffffffffffffffffffffffffffffffffffffff166370a08231336040518263ffffffff1660e01b81526004016111d29190612bd5565b602060405180830381865afa1580156111ef573d6000803e3d6000fd5b505050506040513d601f19601f8201168201806040525081019061121391906132d2565b1015611254576040517f08c379a000000000000000000000000000000000000000000000000000000000815260040161124b90613558565b60405180910390fd5b6000600b600083815260200190815260200160002060020154620f4240600b600085815260200190815260200160002060010154426112939190613578565b61129d91906135db565b6112a7919061360c565b9050600960009054906101000a900473ffffffffffffffffffffffffffffffffffffffff1673ffffffffffffffffffffffffffffffffffffffff166323b872dd336112f1856109b2565b84600b6000888152602001908152602001600020600201546113139190613578565b6040518463ffffffff1660e01b81526004016113319392919061364e565b6020604051808303816000875af1158015611350573d6000803e3d6000fd5b505050506040513d601f19601f82011682018060405250810190611374919061369a565b50600960009054906101000a900473ffffffffffffffffffffffffffffffffffffffff1673ffffffffffffffffffffffffffffffffffffffff166323b872dd33600660009054906101000a900473ffffffffffffffffffffffffffffffffffffffff16846040518463ffffffff1660e01b81526004016113f69392919061364e565b6020604051808303816000875af1158015611415573d6000803e3d6000fd5b505050506040513d601f19601f82011682018060405250810190611439919061369a565b506000600b600084815260200190815260200160002060030160006101000a81548160ff02191690831515021790555061147c611475836109b2565b3384611fd4565b33600b600084815260200190815260200160002060000160006101000a81548173ffffffffffffffffffffffffffffffffffffffff021916908373ffffffffffffffffffffffffffffffffffffffff160217905550600860008154809291906114e4906136c7565b91905055507fb6e6b0aa920ed5fbb8dd058bbd321e9b2b8780062b0dd9bc84019b47706f73ab82600b60008581526020019081526020016000206002015433604051611532939291906133fd565b60405180910390a15050565b60075481565b61154f848484610890565b61155b84848484612141565b50505050565b606061156c82611b6c565b5060006115776122f8565b9050600081511161159757604051806020016040528060008152506115c2565b806115a18461230f565b6040516020016115b292919061372c565b6040516020818303038152906040525b915050919050565b600660009054906101000a900473ffffffffffffffffffffffffffffffffffffffff1681565b60003411611633576040517f08c379a000000000000000000000000000000000000000000000000000000000815260040161162a9061379c565b60405180910390fd5b6000349050600960009054906101000a900473ffffffffffffffffffffffffffffffffffffffff1673ffffffffffffffffffffffffffffffffffffffff166340c10f1933836040518363ffffffff1660e01b81526004016116959291906137bc565b600060405180830381600087803b1580156116af57600080fd5b505af11580156116c3573d6000803e3d6000fd5b50505050600660009054906101000a900473ffffffffffffffffffffffffffffffffffffffff1673ffffffffffffffffffffffffffffffffffffffff166108fc349081150290604051600060405180830381858888f1935050505015801561172f573d6000803e3d6000fd5b5050565b600a6020528060005260406000206000915090505481565b6000600560008473ffffffffffffffffffffffffffffffffffffffff1673ffffffffffffffffffffffffffffffffffffffff16815260200190815260200160002060008373ffffffffffffffffffffffffffffffffffffffff1673ffffffffffffffffffffffffffffffffffffffff16815260200190815260200160002060009054906101000a900460ff16905092915050565b3373ffffffffffffffffffffffffffffffffffffffff16600b600083815260200190815260200160002060000160009054906101000a900473ffffffffffffffffffffffffffffffffffffffff1673ffffffffffffffffffffffffffffffffffffffff1614611883576040517f08c379a000000000000000000000000000000000000000000000000000000000815260040161187a90613371565b60405180910390fd5b60011515600b600083815260200190815260200160002060030160009054906101000a900460ff161515146118ed576040517f08c379a00000000000000000000000000000000000000000000000000000000081526004016118e490613831565b60405180910390fd5b6000600b600083815260200190815260200160002060030160006101000a81548160ff0219169083151502179055506008600081548092919061192f906136c7565b919050555050565b6005600a60003373ffffffffffffffffffffffffffffffffffffffff1673ffffffffffffffffffffffffffffffffffffffff16815260200190815260200160002054106119b9576040517f08c379a00000000000000000000000000000000000000000000000000000000081526004016119b09061389d565b60405180910390fd5b6119c5336007546123dd565b60405180608001604052803373ffffffffffffffffffffffffffffffffffffffff1681526020014281526020016000815260200160001515815250600b6000600754815260200190815260200160002060008201518160000160006101000a81548173ffffffffffffffffffffffffffffffffffffffff021916908373ffffffffffffffffffffffffffffffffffffffff160217905550602082015181600101556040820151816002015560608201518160030160006101000a81548160ff02191690831515021790555090505060076000815480929190611aa690613246565b9190505550600a60003373ffffffffffffffffffffffffffffffffffffffff1673ffffffffffffffffffffffffffffffffffffffff1681526020019081526020016000206000815480929190611afb90613246565b9190505550565b60007f01ffc9a7000000000000000000000000000000000000000000000000000000007bffffffffffffffffffffffffffffffffffffffffffffffffffffffff1916827bffffffffffffffffffffffffffffffffffffffffffffffffffffffff1916149050919050565b600080611b78836124d6565b9050600073ffffffffffffffffffffffffffffffffffffffff168173ffffffffffffffffffffffffffffffffffffffff1603611beb57826040517f7e273289000000000000000000000000000000000000000000000000000000008152600401611be29190612c6b565b60405180910390fd5b80915050919050565b60006004600083815260200190815260200160002060009054906101000a900473ffffffffffffffffffffffffffffffffffffffff169050919050565b600033905090565b611c468383836001612513565b505050565b600080611c57846124d6565b9050600073ffffffffffffffffffffffffffffffffffffffff168373ffffffffffffffffffffffffffffffffffffffff1614611c9957611c988184866126d8565b5b600073ffffffffffffffffffffffffffffffffffffffff168173ffffffffffffffffffffffffffffffffffffffff1614611d2a57611cdb600085600080612513565b6001600360008373ffffffffffffffffffffffffffffffffffffffff1673ffffffffffffffffffffffffffffffffffffffff168152602001908152602001600020600082825403925050819055505b600073ffffffffffffffffffffffffffffffffffffffff168573ffffffffffffffffffffffffffffffffffffffff1614611dad576001600360008773ffffffffffffffffffffffffffffffffffffffff1673ffffffffffffffffffffffffffffffffffffffff168152602001908152602001600020600082825401925050819055505b846002600086815260200190815260200160002060006101000a81548173ffffffffffffffffffffffffffffffffffffffff021916908373ffffffffffffffffffffffffffffffffffffffff160217905550838573ffffffffffffffffffffffffffffffffffffffff168273ffffffffffffffffffffffffffffffffffffffff167fddf252ad1be2c89b69c2b068fc378daa952ba7f163c4a11628f55a4df523b3ef60405160405180910390a4809150509392505050565b600073ffffffffffffffffffffffffffffffffffffffff168273ffffffffffffffffffffffffffffffffffffffff1603611ed657816040517f5b08ba18000000000000000000000000000000000000000000000000000000008152600401611ecd9190612bd5565b60405180910390fd5b80600560008573ffffffffffffffffffffffffffffffffffffffff1673ffffffffffffffffffffffffffffffffffffffff16815260200190815260200160002060008473ffffffffffffffffffffffffffffffffffffffff1673ffffffffffffffffffffffffffffffffffffffff16815260200190815260200160002060006101000a81548160ff0219169083151502179055508173ffffffffffffffffffffffffffffffffffffffff168373ffffffffffffffffffffffffffffffffffffffff167f17307eab39ab6107e8899845ad3d59bd9653f200f220920489ca2b5937696c3183604051611fc79190612a64565b60405180910390a3505050565b600073ffffffffffffffffffffffffffffffffffffffff168273ffffffffffffffffffffffffffffffffffffffff16036120465760006040517f64a0ae9200000000000000000000000000000000000000000000000000000000815260040161203d9190612bd5565b60405180910390fd5b600061205483836000611c4b565b9050600073ffffffffffffffffffffffffffffffffffffffff168173ffffffffffffffffffffffffffffffffffffffff16036120c757816040517f7e2732890000000000000000000000000000000000000000000000000000000081526004016120be9190612c6b565b60405180910390fd5b8373ffffffffffffffffffffffffffffffffffffffff168173ffffffffffffffffffffffffffffffffffffffff161461213b578382826040517f64283d7b000000000000000000000000000000000000000000000000000000008152600401612132939291906131e0565b60405180910390fd5b50505050565b60008373ffffffffffffffffffffffffffffffffffffffff163b11156122f2578273ffffffffffffffffffffffffffffffffffffffff1663150b7a02612185611c31565b8685856040518563ffffffff1660e01b81526004016121a79493929190613912565b6020604051808303816000875af19250505080156121e357506040513d601f19601f820116820180604052508101906121e09190613973565b60015b612267573d8060008114612213576040519150601f19603f3d011682016040523d82523d6000602084013e612218565b606091505b50600081510361225f57836040517f64a0ae920000000000000000000000000000000000000000000000000000000081526004016122569190612bd5565b60405180910390fd5b805181602001fd5b63150b7a0260e01b7bffffffffffffffffffffffffffffffffffffffffffffffffffffffff1916817bffffffffffffffffffffffffffffffffffffffffffffffffffffffff1916146122f057836040517f64a0ae920000000000000000000000000000000000000000000000000000000081526004016122e79190612bd5565b60405180910390fd5b505b50505050565b606060405180602001604052806000815250905090565b60606000600161231e8461279c565b01905060008167ffffffffffffffff81111561233d5761233c612f92565b5b6040519080825280601f01601f19166020018201604052801561236f5781602001600182028036833780820191505090505b509050600082602001820190505b6001156123d2578080600190039150507f3031323334353637383961626364656600000000000000000000000000000000600a86061a8153600a85816123c6576123c56135ac565b5b0494506000850361237d575b819350505050919050565b600073ffffffffffffffffffffffffffffffffffffffff168273ffffffffffffffffffffffffffffffffffffffff160361244f5760006040517f64a0ae920000000000000000000000000000000000000000000000000000000081526004016124469190612bd5565b60405180910390fd5b600061245d83836000611c4b565b9050600073ffffffffffffffffffffffffffffffffffffffff168173ffffffffffffffffffffffffffffffffffffffff16146124d15760006040517f73c6ac6e0000000000000000000000000000000000000000000000000000000081526004016124c89190612bd5565b60405180910390fd5b505050565b60006002600083815260200190815260200160002060009054906101000a900473ffffffffffffffffffffffffffffffffffffffff169050919050565b808061254c5750600073ffffffffffffffffffffffffffffffffffffffff168273ffffffffffffffffffffffffffffffffffffffff1614155b1561268057600061255c84611b6c565b9050600073ffffffffffffffffffffffffffffffffffffffff168373ffffffffffffffffffffffffffffffffffffffff16141580156125c757508273ffffffffffffffffffffffffffffffffffffffff168173ffffffffffffffffffffffffffffffffffffffff1614155b80156125da57506125d8818461174b565b155b1561261c57826040517fa9fbf51f0000000000000000000000000000000000000000000000000000000081526004016126139190612bd5565b60405180910390fd5b811561267e57838573ffffffffffffffffffffffffffffffffffffffff168273ffffffffffffffffffffffffffffffffffffffff167f8c5be1e5ebec7d5bd14f71427d1e84f3dd0314c0f7b2291e5b200ac8c7c3b92560405160405180910390a45b505b836004600085815260200190815260200160002060006101000a81548173ffffffffffffffffffffffffffffffffffffffff021916908373ffffffffffffffffffffffffffffffffffffffff16021790555050505050565b6126e38383836128ef565b61279757600073ffffffffffffffffffffffffffffffffffffffff168373ffffffffffffffffffffffffffffffffffffffff160361275857806040517f7e27328900000000000000000000000000000000000000000000000000000000815260040161274f9190612c6b565b60405180910390fd5b81816040517f177e802f00000000000000000000000000000000000000000000000000000000815260040161278e9291906137bc565b60405180910390fd5b505050565b600080600090507a184f03e93ff9f4daa797ed6e38ed64bf6a1f01000000000000000083106127fa577a184f03e93ff9f4daa797ed6e38ed64bf6a1f01000000000000000083816127f0576127ef6135ac565b5b0492506040810190505b6d04ee2d6d415b85acef81000000008310612837576d04ee2d6d415b85acef8100000000838161282d5761282c6135ac565b5b0492506020810190505b662386f26fc10000831061286657662386f26fc10000838161285c5761285b6135ac565b5b0492506010810190505b6305f5e100831061288f576305f5e1008381612885576128846135ac565b5b0492506008810190505b61271083106128b45761271083816128aa576128a96135ac565b5b0492506004810190505b606483106128d757606483816128cd576128cc6135ac565b5b0492506002810190505b600a83106128e6576001810190505b80915050919050565b60008073ffffffffffffffffffffffffffffffffffffffff168373ffffffffffffffffffffffffffffffffffffffff16141580156129a757508273ffffffffffffffffffffffffffffffffffffffff168473ffffffffffffffffffffffffffffffffffffffff1614806129685750612967848461174b565b5b806129a657508273ffffffffffffffffffffffffffffffffffffffff1661298e83611bf4565b73ffffffffffffffffffffffffffffffffffffffff16145b5b90509392505050565b6000604051905090565b600080fd5b600080fd5b60007fffffffff0000000000000000000000000000000000000000000000000000000082169050919050565b6129f9816129c4565b8114612a0457600080fd5b50565b600081359050612a16816129f0565b92915050565b600060208284031215612a3257612a316129ba565b5b6000612a4084828501612a07565b91505092915050565b60008115159050919050565b612a5e81612a49565b82525050565b6000602082019050612a796000830184612a55565b92915050565b600081519050919050565b600082825260208201905092915050565b60005b83811015612ab9578082015181840152602081019050612a9e565b60008484015250505050565b6000601f19601f8301169050919050565b6000612ae182612a7f565b612aeb8185612a8a565b9350612afb818560208601612a9b565b612b0481612ac5565b840191505092915050565b60006020820190508181036000830152612b298184612ad6565b905092915050565b6000819050919050565b612b4481612b31565b8114612b4f57600080fd5b50565b600081359050612b6181612b3b565b92915050565b600060208284031215612b7d57612b7c6129ba565b5b6000612b8b84828501612b52565b91505092915050565b600073ffffffffffffffffffffffffffffffffffffffff82169050919050565b6000612bbf82612b94565b9050919050565b612bcf81612bb4565b82525050565b6000602082019050612bea6000830184612bc6565b92915050565b612bf981612bb4565b8114612c0457600080fd5b50565b600081359050612c1681612bf0565b92915050565b60008060408385031215612c3357612c326129ba565b5b6000612c4185828601612c07565b9250506020612c5285828601612b52565b9150509250929050565b612c6581612b31565b82525050565b6000602082019050612c806000830184612c5c565b92915050565b600080600060608486031215612c9f57612c9e6129ba565b5b6000612cad86828701612c07565b9350506020612cbe86828701612c07565b9250506040612ccf86828701612b52565b9150509250925092565b600060208284031215612cef57612cee6129ba565b5b6000612cfd84828501612c07565b91505092915050565b600081519050919050565b600082825260208201905092915050565b6000819050602082019050919050565b612d3b81612b31565b82525050565b6000612d4d8383612d32565b60208301905092915050565b6000602082019050919050565b6000612d7182612d06565b612d7b8185612d11565b9350612d8683612d22565b8060005b83811015612db7578151612d9e8882612d41565b9750612da983612d59565b925050600181019050612d8a565b5085935050505092915050565b60006020820190508181036000830152612dde8184612d66565b905092915050565b6000819050919050565b6000612e0b612e06612e0184612b94565b612de6565b612b94565b9050919050565b6000612e1d82612df0565b9050919050565b6000612e2f82612e12565b9050919050565b612e3f81612e24565b82525050565b6000602082019050612e5a6000830184612e36565b92915050565b60008060408385031215612e7757612e766129ba565b5b6000612e8585828601612b52565b9250506020612e9685828601612b52565b9150509250929050565b612ea981612a49565b8114612eb457600080fd5b50565b600081359050612ec681612ea0565b92915050565b60008060408385031215612ee357612ee26129ba565b5b6000612ef185828601612c07565b9250506020612f0285828601612eb7565b9150509250929050565b6000606082019050612f216000830186612bc6565b612f2e6020830185612c5c565b612f3b6040830184612c5c565b949350505050565b6000608082019050612f586000830187612bc6565b612f656020830186612c5c565b612f726040830185612c5c565b612f7f6060830184612a55565b95945050505050565b600080fd5b600080fd5b7f4e487b7100000000000000000000000000000000000000000000000000000000600052604160045260246000fd5b612fca82612ac5565b810181811067ffffffffffffffff82111715612fe957612fe8612f92565b5b80604052505050565b6000612ffc6129b0565b90506130088282612fc1565b919050565b600067ffffffffffffffff82111561302857613027612f92565b5b61303182612ac5565b9050602081019050919050565b82818337600083830152505050565b600061306061305b8461300d565b612ff2565b90508281526020810184848401111561307c5761307b612f8d565b5b61308784828561303e565b509392505050565b600082601f8301126130a4576130a3612f88565b5b81356130b484826020860161304d565b91505092915050565b600080600080608085870312156130d7576130d66129ba565b5b60006130e587828801612c07565b94505060206130f687828801612c07565b935050604061310787828801612b52565b925050606085013567ffffffffffffffff811115613128576131276129bf565b5b6131348782880161308f565b91505092959194509250565b60008060408385031215613157576131566129ba565b5b600061316585828601612c07565b925050602061317685828601612c07565b9150509250929050565b7f4e487b7100000000000000000000000000000000000000000000000000000000600052602260045260246000fd5b600060028204905060018216806131c757607f821691505b6020821081036131da576131d9613180565b5b50919050565b60006060820190506131f56000830186612bc6565b6132026020830185612c5c565b61320f6040830184612bc6565b949350505050565b7f4e487b7100000000000000000000000000000000000000000000000000000000600052601160045260246000fd5b600061325182612b31565b91507fffffffffffffffffffffffffffffffffffffffffffffffffffffffffffffffff820361328357613282613217565b5b600182019050919050565b7f4e487b7100000000000000000000000000000000000000000000000000000000600052603260045260246000fd5b6000815190506132cc81612b3b565b92915050565b6000602082840312156132e8576132e76129ba565b5b60006132f6848285016132bd565b91505092915050565b7f596f7520617265206e6f7420746865206f776e6572206f66207468697320686f60008201527f7573650000000000000000000000000000000000000000000000000000000000602082015250565b600061335b602383612a8a565b9150613366826132ff565b604082019050919050565b6000602082019050818103600083015261338a8161334e565b9050919050565b7f5468697320686f75736520697320616c7265616479206f6e2073616c65000000600082015250565b60006133c7601d83612a8a565b91506133d282613391565b602082019050919050565b600060208201905081810360008301526133f6816133ba565b9050919050565b60006060820190506134126000830186612c5c565b61341f6020830185612c5c565b61342c6040830184612bc6565b949350505050565b7f486f757365206e6f7420666f722073616c650000000000000000000000000000600082015250565b600061346a601283612a8a565b915061347582613434565b602082019050919050565b600060208201905081810360008301526134998161345d565b9050919050565b7f43616e206e6f7420627579206f776e656420686f757365000000000000000000600082015250565b60006134d6601783612a8a565b91506134e1826134a0565b602082019050919050565b60006020820190508181036000830152613505816134c9565b9050919050565b7f4e6f7420656e6f75676820746f6b656e73000000000000000000000000000000600082015250565b6000613542601183612a8a565b915061354d8261350c565b602082019050919050565b6000602082019050818103600083015261357181613535565b9050919050565b600061358382612b31565b915061358e83612b31565b92508282039050818111156135a6576135a5613217565b5b92915050565b7f4e487b7100000000000000000000000000000000000000000000000000000000600052601260045260246000fd5b60006135e682612b31565b91506135f183612b31565b925082613601576136006135ac565b5b828204905092915050565b600061361782612b31565b915061362283612b31565b925082820261363081612b31565b9150828204841483151761364757613646613217565b5b5092915050565b60006060820190506136636000830186612bc6565b6136706020830185612bc6565b61367d6040830184612c5c565b949350505050565b60008151905061369481612ea0565b92915050565b6000602082840312156136b0576136af6129ba565b5b60006136be84828501613685565b91505092915050565b60006136d282612b31565b9150600082036136e5576136e4613217565b5b600182039050919050565b600081905092915050565b600061370682612a7f565b61371081856136f0565b9350613720818560208601612a9b565b80840191505092915050565b600061373882856136fb565b915061374482846136fb565b91508190509392505050565b7f4e6f2065746865722073656e7400000000000000000000000000000000000000600082015250565b6000613786600d83612a8a565b915061379182613750565b602082019050919050565b600060208201905081810360008301526137b581613779565b9050919050565b60006040820190506137d16000830185612bc6565b6137de6020830184612c5c565b9392505050565b7f5468697320686f757365206973206e6f74206f6e2073616c6500000000000000600082015250565b600061381b601983612a8a565b9150613826826137e5565b602082019050919050565b6000602082019050818103600083015261384a8161380e565b9050919050565b7f4e6f206d6f726520686f75736520746f20726563696576650000000000000000600082015250565b6000613887601883612a8a565b915061389282613851565b602082019050919050565b600060208201905081810360008301526138b68161387a565b9050919050565b600081519050919050565b600082825260208201905092915050565b60006138e4826138bd565b6138ee81856138c8565b93506138fe818560208601612a9b565b61390781612ac5565b840191505092915050565b60006080820190506139276000830187612bc6565b6139346020830186612bc6565b6139416040830185612c5c565b818103606083015261395381846138d9565b905095945050505050565b60008151905061396d816129f0565b92915050565b600060208284031215613989576139886129ba565b5b60006139978482850161395e565b9150509291505056fea2646970667358221220d7b0c165a3e98013191701bb266c812bf1a759e45b354a05ec23ebe1dcf185e664736f6c6343000814003360806040523480156200001157600080fd5b5060405162001b0638038062001b068339818101604052810190620000379190620004ff565b818181600390816200004a9190620007cf565b5080600490816200005c9190620007cf565b5050506200009e3362000074620000a660201b60201c565b600a62000082919062000a46565b620f424062000092919062000a97565b620000af60201b60201c565b505062000bea565b60006012905090565b600073ffffffffffffffffffffffffffffffffffffffff168273ffffffffffffffffffffffffffffffffffffffff1603620001245760006040517fec442f050000000000000000000000000000000000000000000000000000000081526004016200011b919062000b27565b60405180910390fd5b62000138600083836200013c60201b60201c565b5050565b600073ffffffffffffffffffffffffffffffffffffffff168373ffffffffffffffffffffffffffffffffffffffff16036200019257806002600082825462000185919062000b44565b9250508190555062000268565b60008060008573ffffffffffffffffffffffffffffffffffffffff1673ffffffffffffffffffffffffffffffffffffffff1681526020019081526020016000205490508181101562000221578381836040517fe450d38c000000000000000000000000000000000000000000000000000000008152600401620002189392919062000b90565b60405180910390fd5b8181036000808673ffffffffffffffffffffffffffffffffffffffff1673ffffffffffffffffffffffffffffffffffffffff16815260200190815260200160002081905550505b600073ffffffffffffffffffffffffffffffffffffffff168273ffffffffffffffffffffffffffffffffffffffff1603620002b3578060026000828254039250508190555062000300565b806000808473ffffffffffffffffffffffffffffffffffffffff1673ffffffffffffffffffffffffffffffffffffffff168152602001908152602001600020600082825401925050819055505b8173ffffffffffffffffffffffffffffffffffffffff168373ffffffffffffffffffffffffffffffffffffffff167fddf252ad1be2c89b69c2b068fc378daa952ba7f163c4a11628f55a4df523b3ef836040516200035f919062000bcd565b60405180910390a3505050565b6000604051905090565b600080fd5b600080fd5b600080fd5b600080fd5b6000601f19601f8301169050919050565b7f4e487b7100000000000000000000000000000000000000000000000000000000600052604160045260246000fd5b620003d5826200038a565b810181811067ffffffffffffffff82111715620003f757620003f66200039b565b5b80604052505050565b60006200040c6200036c565b90506200041a8282620003ca565b919050565b600067ffffffffffffffff8211156200043d576200043c6200039b565b5b62000448826200038a565b9050602081019050919050565b60005b838110156200047557808201518184015260208101905062000458565b60008484015250505050565b60006200049862000492846200041f565b62000400565b905082815260208101848484011115620004b757620004b662000385565b5b620004c484828562000455565b509392505050565b600082601f830112620004e457620004e362000380565b5b8151620004f684826020860162000481565b91505092915050565b6000806040838503121562000519576200051862000376565b5b600083015167ffffffffffffffff8111156200053a57620005396200037b565b5b6200054885828601620004cc565b925050602083015167ffffffffffffffff8111156200056c576200056b6200037b565b5b6200057a85828601620004cc565b9150509250929050565b600081519050919050565b7f4e487b7100000000000000000000000000000000000000000000000000000000600052602260045260246000fd5b60006002820490506001821680620005d757607f821691505b602082108103620005ed57620005ec6200058f565b5b50919050565b60008190508160005260206000209050919050565b60006020601f8301049050919050565b600082821b905092915050565b600060088302620006577fffffffffffffffffffffffffffffffffffffffffffffffffffffffffffffffff8262000618565b62000663868362000618565b95508019841693508086168417925050509392505050565b6000819050919050565b6000819050919050565b6000620006b0620006aa620006a4846200067b565b62000685565b6200067b565b9050919050565b6000819050919050565b620006cc836200068f565b620006e4620006db82620006b7565b84845462000625565b825550505050565b600090565b620006fb620006ec565b62000708818484620006c1565b505050565b5b81811015620007305762000724600082620006f1565b6001810190506200070e565b5050565b601f8211156200077f576200074981620005f3565b620007548462000608565b8101602085101562000764578190505b6200077c620007738562000608565b8301826200070d565b50505b505050565b600082821c905092915050565b6000620007a46000198460080262000784565b1980831691505092915050565b6000620007bf838362000791565b9150826002028217905092915050565b620007da8262000584565b67ffffffffffffffff811115620007f657620007f56200039b565b5b620008028254620005be565b6200080f82828562000734565b600060209050601f83116001811462000847576000841562000832578287015190505b6200083e8582620007b1565b865550620008ae565b601f1984166200085786620005f3565b60005b8281101562000881578489015182556001820191506020850194506020810190506200085a565b86831015620008a157848901516200089d601f89168262000791565b8355505b6001600288020188555050505b505050505050565b7f4e487b7100000000000000000000000000000000000000000000000000000000600052601160045260246000fd5b60008160011c9050919050565b6000808291508390505b600185111562000944578086048111156200091c576200091b620008b6565b5b60018516156200092c5780820291505b80810290506200093c85620008e5565b9450620008fc565b94509492505050565b6000826200095f576001905062000a32565b816200096f576000905062000a32565b81600181146200098857600281146200099357620009c9565b600191505062000a32565b60ff841115620009a857620009a7620008b6565b5b8360020a915084821115620009c257620009c1620008b6565b5b5062000a32565b5060208310610133831016604e8410600b841016171562000a035782820a905083811115620009fd57620009fc620008b6565b5b62000a32565b62000a128484846001620008f2565b9250905081840481111562000a2c5762000a2b620008b6565b5b81810290505b9392505050565b600060ff82169050919050565b600062000a53826200067b565b915062000a608362000a39565b925062000a8f7fffffffffffffffffffffffffffffffffffffffffffffffffffffffffffffffff84846200094d565b905092915050565b600062000aa4826200067b565b915062000ab1836200067b565b925082820262000ac1816200067b565b9150828204841483151762000adb5762000ada620008b6565b5b5092915050565b600073ffffffffffffffffffffffffffffffffffffffff82169050919050565b600062000b0f8262000ae2565b9050919050565b62000b218162000b02565b82525050565b600060208201905062000b3e600083018462000b16565b92915050565b600062000b51826200067b565b915062000b5e836200067b565b925082820190508082111562000b795762000b78620008b6565b5b92915050565b62000b8a816200067b565b82525050565b600060608201905062000ba7600083018662000b16565b62000bb6602083018562000b7f565b62000bc5604083018462000b7f565b949350505050565b600060208201905062000be4600083018462000b7f565b92915050565b610f0c8062000bfa6000396000f3fe608060405234801561001057600080fd5b506004361061009e5760003560e01c806340c10f191161006657806340c10f191461015d57806370a082311461017957806395d89b41146101a9578063a9059cbb146101c7578063dd62ed3e146101f75761009e565b806306fdde03146100a3578063095ea7b3146100c157806318160ddd146100f157806323b872dd1461010f578063313ce5671461013f575b600080fd5b6100ab610227565b6040516100b89190610b60565b60405180910390f35b6100db60048036038101906100d69190610c1b565b6102b9565b6040516100e89190610c76565b60405180910390f35b6100f96102dc565b6040516101069190610ca0565b60405180910390f35b61012960048036038101906101249190610cbb565b6102e6565b6040516101369190610c76565b60405180910390f35b610147610315565b6040516101549190610d2a565b60405180910390f35b61017760048036038101906101729190610c1b565b61031e565b005b610193600480360381019061018e9190610d45565b61032c565b6040516101a09190610ca0565b60405180910390f35b6101b1610374565b6040516101be9190610b60565b60405180910390f35b6101e160048036038101906101dc9190610c1b565b610406565b6040516101ee9190610c76565b60405180910390f35b610211600480360381019061020c9190610d72565b610429565b60405161021e9190610ca0565b60405180910390f35b60606003805461023690610de1565b80601f016020809104026020016040519081016040528092919081815260200182805461026290610de1565b80156102af5780601f10610284576101008083540402835291602001916102af565b820191906000526020600020905b81548152906001019060200180831161029257829003601f168201915b5050505050905090565b6000806102c46104b0565b90506102d18185856104b8565b600191505092915050565b6000600254905090565b6000806102f16104b0565b90506102fe8582856104ca565b61030985858561055e565b60019150509392505050565b60006012905090565b6103288282610652565b5050565b60008060008373ffffffffffffffffffffffffffffffffffffffff1673ffffffffffffffffffffffffffffffffffffffff168152602001908152602001600020549050919050565b60606004805461038390610de1565b80601f01602080910402602001604051908101604052809291908181526020018280546103af90610de1565b80156103fc5780601f106103d1576101008083540402835291602001916103fc565b820191906000526020600020905b8154815290600101906020018083116103df57829003601f168201915b5050505050905090565b6000806104116104b0565b905061041e81858561055e565b600191505092915050565b6000600160008473ffffffffffffffffffffffffffffffffffffffff1673ffffffffffffffffffffffffffffffffffffffff16815260200190815260200160002060008373ffffffffffffffffffffffffffffffffffffffff1673ffffffffffffffffffffffffffffffffffffffff16815260200190815260200160002054905092915050565b600033905090565b6104c583838360016106d4565b505050565b60006104d68484610429565b90507fffffffffffffffffffffffffffffffffffffffffffffffffffffffffffffffff81146105585781811015610548578281836040517ffb8f41b200000000000000000000000000000000000000000000000000000000815260040161053f93929190610e21565b60405180910390fd5b610557848484840360006106d4565b5b50505050565b600073ffffffffffffffffffffffffffffffffffffffff168373ffffffffffffffffffffffffffffffffffffffff16036105d05760006040517f96c6fd1e0000000000000000000000000000000000000000000000000000000081526004016105c79190610e58565b60405180910390fd5b600073ffffffffffffffffffffffffffffffffffffffff168273ffffffffffffffffffffffffffffffffffffffff16036106425760006040517fec442f050000000000000000000000000000000000000000000000000000000081526004016106399190610e58565b60405180910390fd5b61064d8383836108ab565b505050565b600073ffffffffffffffffffffffffffffffffffffffff168273ffffffffffffffffffffffffffffffffffffffff16036106c45760006040517fec442f050000000000000000000000000000000000000000000000000000000081526004016106bb9190610e58565b60405180910390fd5b6106d0600083836108ab565b5050565b600073ffffffffffffffffffffffffffffffffffffffff168473ffffffffffffffffffffffffffffffffffffffff16036107465760006040517fe602df0500000000000000000000000000000000000000000000000000000000815260040161073d9190610e58565b60405180910390fd5b600073ffffffffffffffffffffffffffffffffffffffff168373ffffffffffffffffffffffffffffffffffffffff16036107b85760006040517f94280d620000000000000000000000000000000000000000000000000000000081526004016107af9190610e58565b60405180910390fd5b81600160008673ffffffffffffffffffffffffffffffffffffffff1673ffffffffffffffffffffffffffffffffffffffff16815260200190815260200160002060008573ffffffffffffffffffffffffffffffffffffffff1673ffffffffffffffffffffffffffffffffffffffff1681526020019081526020016000208190555080156108a5578273ffffffffffffffffffffffffffffffffffffffff168473ffffffffffffffffffffffffffffffffffffffff167f8c5be1e5ebec7d5bd14f71427d1e84f3dd0314c0f7b2291e5b200ac8c7c3b9258460405161089c9190610ca0565b60405180910390a35b50505050565b600073ffffffffffffffffffffffffffffffffffffffff168373ffffffffffffffffffffffffffffffffffffffff16036108fd5780600260008282546108f19190610ea2565b925050819055506109d0565b60008060008573ffffffffffffffffffffffffffffffffffffffff1673ffffffffffffffffffffffffffffffffffffffff16815260200190815260200160002054905081811015610989578381836040517fe450d38c00000000000000000000000000000000000000000000000000000000815260040161098093929190610e21565b60405180910390fd5b8181036000808673ffffffffffffffffffffffffffffffffffffffff1673ffffffffffffffffffffffffffffffffffffffff16815260200190815260200160002081905550505b600073ffffffffffffffffffffffffffffffffffffffff168273ffffffffffffffffffffffffffffffffffffffff1603610a195780600260008282540392505081905550610a66565b806000808473ffffffffffffffffffffffffffffffffffffffff1673ffffffffffffffffffffffffffffffffffffffff168152602001908152602001600020600082825401925050819055505b8173ffffffffffffffffffffffffffffffffffffffff168373ffffffffffffffffffffffffffffffffffffffff167fddf252ad1be2c89b69c2b068fc378daa952ba7f163c4a11628f55a4df523b3ef83604051610ac39190610ca0565b60405180910390a3505050565b600081519050919050565b600082825260208201905092915050565b60005b83811015610b0a578082015181840152602081019050610aef565b60008484015250505050565b6000601f19601f8301169050919050565b6000610b3282610ad0565b610b3c8185610adb565b9350610b4c818560208601610aec565b610b5581610b16565b840191505092915050565b60006020820190508181036000830152610b7a8184610b27565b905092915050565b600080fd5b600073ffffffffffffffffffffffffffffffffffffffff82169050919050565b6000610bb282610b87565b9050919050565b610bc281610ba7565b8114610bcd57600080fd5b50565b600081359050610bdf81610bb9565b92915050565b6000819050919050565b610bf881610be5565b8114610c0357600080fd5b50565b600081359050610c1581610bef565b92915050565b60008060408385031215610c3257610c31610b82565b5b6000610c4085828601610bd0565b9250506020610c5185828601610c06565b9150509250929050565b60008115159050919050565b610c7081610c5b565b82525050565b6000602082019050610c8b6000830184610c67565b92915050565b610c9a81610be5565b82525050565b6000602082019050610cb56000830184610c91565b92915050565b600080600060608486031215610cd457610cd3610b82565b5b6000610ce286828701610bd0565b9350506020610cf386828701610bd0565b9250506040610d0486828701610c06565b9150509250925092565b600060ff82169050919050565b610d2481610d0e565b82525050565b6000602082019050610d3f6000830184610d1b565b92915050565b600060208284031215610d5b57610d5a610b82565b5b6000610d6984828501610bd0565b91505092915050565b60008060408385031215610d8957610d88610b82565b5b6000610d9785828601610bd0565b9250506020610da885828601610bd0565b9150509250929050565b7f4e487b7100000000000000000000000000000000000000000000000000000000600052602260045260246000fd5b60006002820490506001821680610df957607f821691505b602082108103610e0c57610e0b610db2565b5b50919050565b610e1b81610ba7565b82525050565b6000606082019050610e366000830186610e12565b610e436020830185610c91565b610e506040830184610c91565b949350505050565b6000602082019050610e6d6000830184610e12565b92915050565b7f4e487b7100000000000000000000000000000000000000000000000000000000600052601160045260246000fd5b6000610ead82610be5565b9150610eb883610be5565b9250828201905080821115610ed057610ecf610e73565b5b9291505056fea264697066735822122062906d9d4fce3a4439884ae7739b3e245261a4fa082026bd4c60b7d8439941e764736f6c63430008140033",
  "linkReferences": {},
  "deployedLinkReferences": {}
}